{
  "address": "0xB7f8BC63BbcaD18155201308C8f3540b07f84F5e",
  "abi": [
    {
      "inputs": [],
      "stateMutability": "nonpayable",
      "type": "constructor"
    },
    {
      "inputs": [],
      "name": "deployBytecode",
      "outputs": [
        {
          "internalType": "bytes",
          "name": "",
          "type": "bytes"
        }
      ],
      "stateMutability": "pure",
      "type": "function"
    },
    {
      "inputs": [],
      "name": "version",
      "outputs": [
        {
          "internalType": "string",
          "name": "",
          "type": "string"
        }
      ],
      "stateMutability": "view",
      "type": "function"
    }
  ],
  "transactionHash": "0xfd84ae5a5382a6ae99a9ebeaccaaf419df92cdd38e89135617dcdadbda9be11c",
  "args": [],
  "numDeployments": 1,
  "solcInputHash": "a59b28bf75faade9a91b10b17d788d3d",
  "bytecode": "0x60e060405234801561001057600080fd5b5060016080819052600060a081905260c08190528061286d6100478239600060e40152600060bb015260006092015261286d6000f3fe608060405234801561001057600080fd5b50600436106100365760003560e01c806331d191661461003b57806354fd4d5014610059575b600080fd5b610043610061565b60405161005091906102d4565b60405180910390f35b61004361008b565b6060604051806020016100739061026b565b601f1982820381018352601f90910116604052919050565b60606100b67f000000000000000000000000000000000000000000000000000000000000000061012e565b6100df7f000000000000000000000000000000000000000000000000000000000000000061012e565b6101087f000000000000000000000000000000000000000000000000000000000000000061012e565b60405160200161011a939291906102ee565b604051602081830303815290604052905090565b60608160000361017157505060408051808201909152600181527f3000000000000000000000000000000000000000000000000000000000000000602082015290565b8160005b811561019b57806101858161037a565b91506101949050600a836103a9565b9150610175565b60008167ffffffffffffffff8111156101b6576101b66103bd565b6040519080825280601f01601f1916602001820160405280156101e0576020820181803683370190505b5090505b8415610263576101f56001836103d3565b9150610202600a866103ea565b61020d9060306103fe565b60f81b81838151811061022257610222610416565b60200101907effffffffffffffffffffffffffffffffffffffffffffffffffffffffffffff1916908160001a90535061025c600a866103a9565b94506101e4565b949350505050565b61240b8061042d83390190565b60005b8381101561029357818101518382015260200161027b565b838111156102a2576000848401525b50505050565b600081518084526102c0816020860160208601610278565b601f01601f19169290920160200192915050565b6020815260006102e760208301846102a8565b9392505050565b60008451610300818460208901610278565b80830190507f2e00000000000000000000000000000000000000000000000000000000000000808252855161033c816001850160208a01610278565b60019201918201528351610357816002840160208801610278565b0160020195945050505050565b634e487b7160e01b600052601160045260246000fd5b60006001820161038c5761038c610364565b5060010190565b634e487b7160e01b600052601260045260246000fd5b6000826103b8576103b8610393565b500490565b634e487b7160e01b600052604160045260246000fd5b6000828210156103e5576103e5610364565b500390565b6000826103f9576103f9610393565b500690565b6000821982111561041157610411610364565b500190565b634e487b7160e01b600052603260045260246000fdfe60a06040523480156200001157600080fd5b507342000000000000000000000000000000000000106080526200003660006200003c565b62000144565b60008055600262000051565b60405180910390fd5b6000805461ffff191660ff8316176101001790556200007082620000b5565b6000805461ff001916905560405160ff821681527f7f26b83ff96e1f2b6a682f133852f6798a09c465da95921460cefb38474024989060200160405180910390a15050565b600054610100900460ff16620001225760405162461bcd60e51b815260206004820152602b60248201527f496e697469616c697a61626c653a20636f6e7472616374206973206e6f74206960448201526a6e697469616c697a696e6760a81b606482015260840162000048565b600380546001600160a01b0319166001600160a01b0392909216919091179055565b6080516122886200018360003960008181610345015281816103fc015281816104fc015281816108ca01528181611052015261154d01526122886000f3fe6080604052600436106101635760003560e01c806387087623116100c0578063a9f9e67511610074578063c4d66de811610059578063c4d66de814610484578063c89701a2146103ed578063e11013dd146104a457600080fd5b8063a9f9e67514610451578063b1a1a8821461047157600080fd5b806391c49bf8116100a557806391c49bf8146103ed578063927ede2d146104205780639a2ac6d51461043e57600080fd5b806387087623146103875780638f601f66146103a757600080fd5b8063540abf731161011757806358a997f6116100fc57806358a997f6146103135780637f46ddb214610333578063838b25201461036757600080fd5b8063540abf731461029d57806354fd4d50146102bd57600080fd5b80631532ec34116101485780631532ec341461023a5780631635f5fd1461024d5780633cb747bf1461026057600080fd5b80630166a07a1461020757806309fc88431461022757600080fd5b3661020257333b156101e25760405162461bcd60e51b815260206004820152603760248201527f5374616e646172644272696467653a2066756e6374696f6e2063616e206f6e6c60448201527f792062652063616c6c65642066726f6d20616e20454f4100000000000000000060648201526084015b60405180910390fd5b610200333362030d40604051806020016040528060008152506104b7565b005b600080fd5b34801561021357600080fd5b50610200610222366004611cf8565b6104ca565b610200610235366004611da9565b6107c7565b610200610248366004611dfc565b610884565b61020061025b366004611dfc565b610898565b34801561026c57600080fd5b50600354610280906001600160a01b031681565b6040516001600160a01b0390911681526020015b60405180910390f35b3480156102a957600080fd5b506102006102b8366004611e6f565b610c16565b3480156102c957600080fd5b506103066040518060400160405280600581526020017f312e332e3000000000000000000000000000000000000000000000000000000081525081565b6040516102949190611f3e565b34801561031f57600080fd5b5061020061032e366004611f51565b610c5b565b34801561033f57600080fd5b506102807f000000000000000000000000000000000000000000000000000000000000000081565b34801561037357600080fd5b50610200610382366004611e6f565b610d15565b34801561039357600080fd5b506102006103a2366004611f51565b610d5a565b3480156103b357600080fd5b506103df6103c2366004611fd4565b600260209081526000928352604080842090915290825290205481565b604051908152602001610294565b3480156103f957600080fd5b507f0000000000000000000000000000000000000000000000000000000000000000610280565b34801561042c57600080fd5b506003546001600160a01b0316610280565b61020061044c36600461200d565b610e14565b34801561045d57600080fd5b5061020061046c366004611cf8565b610e56565b61020061047f366004611da9565b610e65565b34801561049057600080fd5b5061020061049f366004612070565b610f1c565b6102006104b236600461200d565b610f72565b6104c48484348585610fb5565b50505050565b6003546001600160a01b031633148015610579575060035460408051636e296e4560e01b815290516001600160a01b037f00000000000000000000000000000000000000000000000000000000000000008116931691636e296e459160048083019260209291908290030181865afa15801561054a573d6000803e3d6000fd5b505050506040513d601f19601f8201168201806040525081019061056e919061208d565b6001600160a01b0316145b6105f55760405162461bcd60e51b815260206004820152604160248201527f5374616e646172644272696467653a2066756e6374696f6e2063616e206f6e6c60448201527f792062652063616c6c65642066726f6d20746865206f746865722062726964676064820152606560f81b608482015260a4016101d9565b6105fe87611129565b156107125761060d8787611172565b6106925760405162461bcd60e51b815260206004820152604a60248201527f5374616e646172644272696467653a2077726f6e672072656d6f746520746f6b60448201527f656e20666f72204f7074696d69736d204d696e7461626c65204552433230206c60648201526937b1b0b6103a37b5b2b760b11b608482015260a4016101d9565b6040517f40c10f190000000000000000000000000000000000000000000000000000000081526001600160a01b038581166004830152602482018590528816906340c10f1990604401600060405180830381600087803b1580156106f557600080fd5b505af1158015610709573d6000803e3d6000fd5b5050505061077a565b6001600160a01b038088166000908152600260209081526040808320938a16835292905220546107439084906120d9565b6001600160a01b038089166000818152600260209081526040808320948c168352939052919091209190915561077a908585611245565b6107be878787878787878080601f0160208091040260200160405190810160405280939291908181526020018383808284376000920191909152506112c192505050565b50505050505050565b333b1561083c5760405162461bcd60e51b815260206004820152603760248201527f5374616e646172644272696467653a2066756e6374696f6e2063616e206f6e6c60448201527f792062652063616c6c65642066726f6d20616e20454f4100000000000000000060648201526084016101d9565b61087f3333348686868080601f016020809104026020016040519081016040528093929190818152602001838380828437600092019190915250610fb592505050565b505050565b6108918585858585610898565b5050505050565b6003546001600160a01b031633148015610947575060035460408051636e296e4560e01b815290516001600160a01b037f00000000000000000000000000000000000000000000000000000000000000008116931691636e296e459160048083019260209291908290030181865afa158015610918573d6000803e3d6000fd5b505050506040513d601f19601f8201168201806040525081019061093c919061208d565b6001600160a01b0316145b6109c35760405162461bcd60e51b815260206004820152604160248201527f5374616e646172644272696467653a2066756e6374696f6e2063616e206f6e6c60448201527f792062652063616c6c65642066726f6d20746865206f746865722062726964676064820152606560f81b608482015260a4016101d9565b823414610a385760405162461bcd60e51b815260206004820152603a60248201527f5374616e646172644272696467653a20616d6f756e742073656e7420646f657360448201527f206e6f74206d6174636820616d6f756e7420726571756972656400000000000060648201526084016101d9565b306001600160a01b03851603610ab65760405162461bcd60e51b815260206004820152602360248201527f5374616e646172644272696467653a2063616e6e6f742073656e6420746f207360448201527f656c66000000000000000000000000000000000000000000000000000000000060648201526084016101d9565b6003546001600160a01b0390811690851603610b3a5760405162461bcd60e51b815260206004820152602860248201527f5374616e646172644272696467653a2063616e6e6f742073656e6420746f206d60448201527f657373656e67657200000000000000000000000000000000000000000000000060648201526084016101d9565b610b7c85858585858080601f01602080910402602001604051908101604052809392919081815260200183838082843760009201919091525061132892505050565b6000610b99855a8660405180602001604052806000815250611381565b905080610c0e5760405162461bcd60e51b815260206004820152602360248201527f5374616e646172644272696467653a20455448207472616e736665722066616960448201527f6c6564000000000000000000000000000000000000000000000000000000000060648201526084016101d9565b505050505050565b6107be87873388888888888080601f01602080910402602001604051908101604052809392919081815260200183838082843760009201919091525061139b92505050565b333b15610cd05760405162461bcd60e51b815260206004820152603760248201527f5374616e646172644272696467653a2066756e6374696f6e2063616e206f6e6c60448201527f792062652063616c6c65642066726f6d20616e20454f4100000000000000000060648201526084016101d9565b610c0e86863333888888888080601f01602080910402602001604051908101604052809392919081815260200183838082843760009201919091525061162a92505050565b6107be87873388888888888080601f01602080910402602001604051908101604052809392919081815260200183838082843760009201919091525061162a92505050565b333b15610dcf5760405162461bcd60e51b815260206004820152603760248201527f5374616e646172644272696467653a2066756e6374696f6e2063616e206f6e6c60448201527f792062652063616c6c65642066726f6d20616e20454f4100000000000000000060648201526084016101d9565b610c0e86863333888888888080601f01602080910402602001604051908101604052809392919081815260200183838082843760009201919091525061139b92505050565b6104c433858585858080601f0160208091040260200160405190810160405280939291908181526020018383808284376000920191909152506104b792505050565b6107be878787878787876104ca565b333b15610eda5760405162461bcd60e51b815260206004820152603760248201527f5374616e646172644272696467653a2066756e6374696f6e2063616e206f6e6c60448201527f792062652063616c6c65642066726f6d20616e20454f4100000000000000000060648201526084016101d9565b61087f33338585858080601f0160208091040260200160405190810160405280939291908181526020018383808284376000920191909152506104b792505050565b6101026000556002610f2d82611639565b6000805461ff001916905560405160ff821681527f7f26b83ff96e1f2b6a682f133852f6798a09c465da95921460cefb38474024989060200160405180910390a15050565b6104c43385348686868080601f016020809104026020016040519081016040528093929190818152602001838380828437600092019190915250610fb592505050565b82341461102a5760405162461bcd60e51b815260206004820152603e60248201527f5374616e646172644272696467653a206272696467696e6720455448206d757360448201527f7420696e636c7564652073756666696369656e74204554482076616c7565000060648201526084016101d9565b611036858585846116f0565b6003546040516001600160a01b0390911690633dbb202b9085907f0000000000000000000000000000000000000000000000000000000000000000907f1635f5fd00000000000000000000000000000000000000000000000000000000906110a8908b908b9086908a906024016120f0565b60408051601f198184030181529181526020820180516001600160e01b03166001600160e01b03199485161790525160e086901b90921682526110f09291889060040161212c565b6000604051808303818588803b15801561110957600080fd5b505af115801561111d573d6000803e3d6000fd5b50505050505050505050565b600061113c82631d1d8b6360e01b611749565b8061116c575061116c827fec4fc8e300000000000000000000000000000000000000000000000000000000611749565b92915050565b600061118583631d1d8b6360e01b611749565b1561120757826001600160a01b031663c01e1bd66040518163ffffffff1660e01b8152600401602060405180830381865afa1580156111c8573d6000803e3d6000fd5b505050506040513d601f19601f820116820180604052508101906111ec919061208d565b6001600160a01b0316826001600160a01b031614905061116c565b826001600160a01b031663d6c0b2c46040518163ffffffff1660e01b8152600401602060405180830381865afa1580156111c8573d6000803e3d6000fd5b6040516001600160a01b03831660248201526044810182905261087f9084907fa9059cbb00000000000000000000000000000000000000000000000000000000906064015b60408051601f198184030181529190526020810180516001600160e01b03166001600160e01b03199093169290921790915261176c565b836001600160a01b0316856001600160a01b0316876001600160a01b03167f3ceee06c1e37648fcbb6ed52e17b3e1f275a1f8c7b22a84b2b84732431e046b386868660405161131293929190612164565b60405180910390a4610c0e868686868686611851565b826001600160a01b0316846001600160a01b03167f2ac69ee804d9a7a0984249f508dfab7cb2534b465b6ce1580f99a38ba9c5e631848460405161136d929190612195565b60405180910390a36104c4848484846118b2565b600080600080845160208601878a8af19695505050505050565b6113a487611129565b156114b8576113b38787611172565b6114385760405162461bcd60e51b815260206004820152604a60248201527f5374616e646172644272696467653a2077726f6e672072656d6f746520746f6b60448201527f656e20666f72204f7074696d69736d204d696e7461626c65204552433230206c60648201526937b1b0b6103a37b5b2b760b11b608482015260a4016101d9565b6040517f9dc29fac0000000000000000000000000000000000000000000000000000000081526001600160a01b03868116600483015260248201859052881690639dc29fac90604401600060405180830381600087803b15801561149b57600080fd5b505af11580156114af573d6000803e3d6000fd5b50505050611525565b6114cd6001600160a01b038816863086611905565b6001600160a01b038088166000908152600260209081526040808320938a16835292905220546114fe9084906121ae565b6001600160a01b038089166000908152600260209081526040808320938b16835292905220555b611533878787878786611956565b6003546040516001600160a01b0390911690633dbb202b907f0000000000000000000000000000000000000000000000000000000000000000907f0166a07a00000000000000000000000000000000000000000000000000000000906115a7908b908d908c908c908c908b906024016121c6565b60408051601f198184030181529181526020820180516001600160e01b03166001600160e01b03199485161790525160e085901b90921682526115ef9291879060040161212c565b600060405180830381600087803b15801561160957600080fd5b505af115801561161d573d6000803e3d6000fd5b5050505050505050505050565b6107be8787878787878761139b565b600054610100900460ff166116b65760405162461bcd60e51b815260206004820152602b60248201527f496e697469616c697a61626c653a20636f6e7472616374206973206e6f74206960448201527f6e697469616c697a696e6700000000000000000000000000000000000000000060648201526084016101d9565b600380547fffffffffffffffffffffffff0000000000000000000000000000000000000000166001600160a01b0392909216919091179055565b826001600160a01b0316846001600160a01b03167f35d79ab81f2b2017e19afb5c5571778877782d7a8786f5907f93b0f4702f4f238484604051611735929190612195565b60405180910390a36104c4848484846119bd565b600061175483611a02565b801561176557506117658383611a35565b9392505050565b60006117c1826040518060400160405280602081526020017f5361666545524332303a206c6f772d6c6576656c2063616c6c206661696c6564815250856001600160a01b0316611abe9092919063ffffffff16565b80519091501561087f57808060200190518101906117df9190612214565b61087f5760405162461bcd60e51b815260206004820152602a60248201527f5361666545524332303a204552433230206f7065726174696f6e20646964206e60448201527f6f7420737563636565640000000000000000000000000000000000000000000060648201526084016101d9565b836001600160a01b0316856001600160a01b0316876001600160a01b03167fd59c65b35445225835c83f50b6ede06a7be047d22e357073e250d9af537518cd8686866040516118a293929190612164565b60405180910390a4505050505050565b826001600160a01b0316846001600160a01b03167f31b2166ff604fc5672ea5df08a78081d2bc6d746cadce880747f3643d819e83d84846040516118f7929190612195565b60405180910390a350505050565b6040516001600160a01b03808516602483015283166044820152606481018290526104c49085907f23b872dd000000000000000000000000000000000000000000000000000000009060840161128a565b836001600160a01b0316856001600160a01b0316876001600160a01b03167f718594027abd4eaed59f95162563e0cc6d0e8d5b86b1c7be8b1b0ac3343d03968686866040516119a793929190612164565b60405180910390a4610c0e868686868686611ad5565b826001600160a01b0316846001600160a01b03167f2849b43074093a05396b6f2a937dee8565b15a48a7b3d4bffb732a5017380af584846040516118f7929190612195565b6000611a15826301ffc9a760e01b611a35565b801561116c5750611a2e826001600160e01b0319611a35565b1592915050565b604080516001600160e01b03198316602480830191909152825180830390910181526044909101909152602080820180516001600160e01b03166301ffc9a760e01b178152825160009392849283928392918391908a617530fa92503d91506000519050828015611aa7575060208210155b8015611ab35750600081115b979650505050505050565b6060611acd8484600085611b26565b949350505050565b836001600160a01b0316856001600160a01b0316876001600160a01b03167f7ff126db8024424bbfd9826e8ab82ff59136289ea440b04b39a0df1b03b9cabf8686866040516118a293929190612164565b606082471015611b9e5760405162461bcd60e51b815260206004820152602660248201527f416464726573733a20696e73756666696369656e742062616c616e636520666f60448201527f722063616c6c000000000000000000000000000000000000000000000000000060648201526084016101d9565b6001600160a01b0385163b611bf55760405162461bcd60e51b815260206004820152601d60248201527f416464726573733a2063616c6c20746f206e6f6e2d636f6e747261637400000060448201526064016101d9565b600080866001600160a01b03168587604051611c119190612236565b60006040518083038185875af1925050503d8060008114611c4e576040519150601f19603f3d011682016040523d82523d6000602084013e611c53565b606091505b5091509150611ab382828660608315611c6d575081611765565b825115611c7d5782518084602001fd5b8160405162461bcd60e51b81526004016101d99190611f3e565b6001600160a01b0381168114611cac57600080fd5b50565b60008083601f840112611cc157600080fd5b50813567ffffffffffffffff811115611cd957600080fd5b602083019150836020828501011115611cf157600080fd5b9250929050565b600080600080600080600060c0888a031215611d1357600080fd5b8735611d1e81611c97565b96506020880135611d2e81611c97565b95506040880135611d3e81611c97565b94506060880135611d4e81611c97565b93506080880135925060a088013567ffffffffffffffff811115611d7157600080fd5b611d7d8a828b01611caf565b989b979a50959850939692959293505050565b803563ffffffff81168114611da457600080fd5b919050565b600080600060408486031215611dbe57600080fd5b611dc784611d90565b9250602084013567ffffffffffffffff811115611de357600080fd5b611def86828701611caf565b9497909650939450505050565b600080600080600060808688031215611e1457600080fd5b8535611e1f81611c97565b94506020860135611e2f81611c97565b935060408601359250606086013567ffffffffffffffff811115611e5257600080fd5b611e5e88828901611caf565b969995985093965092949392505050565b600080600080600080600060c0888a031215611e8a57600080fd5b8735611e9581611c97565b96506020880135611ea581611c97565b95506040880135611eb581611c97565b945060608801359350611eca60808901611d90565b925060a088013567ffffffffffffffff811115611d7157600080fd5b60005b83811015611f01578181015183820152602001611ee9565b838111156104c45750506000910152565b60008151808452611f2a816020860160208601611ee6565b601f01601f19169290920160200192915050565b6020815260006117656020830184611f12565b60008060008060008060a08789031215611f6a57600080fd5b8635611f7581611c97565b95506020870135611f8581611c97565b945060408701359350611f9a60608801611d90565b9250608087013567ffffffffffffffff811115611fb657600080fd5b611fc289828a01611caf565b979a9699509497509295939492505050565b60008060408385031215611fe757600080fd5b8235611ff281611c97565b9150602083013561200281611c97565b809150509250929050565b6000806000806060858703121561202357600080fd5b843561202e81611c97565b935061203c60208601611d90565b9250604085013567ffffffffffffffff81111561205857600080fd5b61206487828801611caf565b95989497509550505050565b60006020828403121561208257600080fd5b813561176581611c97565b60006020828403121561209f57600080fd5b815161176581611c97565b7f4e487b7100000000000000000000000000000000000000000000000000000000600052601160045260246000fd5b6000828210156120eb576120eb6120aa565b500390565b60006001600160a01b038087168352808616602084015250836040830152608060608301526121226080830184611f12565b9695505050505050565b6001600160a01b038416815260606020820152600061214e6060830185611f12565b905063ffffffff83166040830152949350505050565b6001600160a01b038416815282602082015260606040820152600061218c6060830184611f12565b95945050505050565b828152604060208201526000611acd6040830184611f12565b600082198211156121c1576121c16120aa565b500190565b60006001600160a01b0380891683528088166020840152808716604084015280861660608401525083608083015260c060a083015261220860c0830184611f12565b98975050505050505050565b60006020828403121561222657600080fd5b8151801515811461176557600080fd5b60008251612248818460208701611ee6565b919091019291505056fea26469706673582212200d8ab5f054037292ca78c5c5cd164e32ae470679e67b033c9afd86de61d4bd3564736f6c634300080f0033a264697066735822122038d6ebd84d8fc9bde3053e593d1aec5c74e0f1442f05b9351d869ba3ef1149f264736f6c634300080f0033",
  "devdoc": {
    "kind": "dev",
    "methods": {
      "version()": {
        "returns": {
          "_0": "Semver contract version as a string."
        }
      }
    },
    "version": 1
  },
  "userdoc": {
    "kind": "user",
    "methods": {
      "deployBytecode()": {
        "notice": "The create2 salt used for deployment of the contract implementations."
      },
      "version()": {
        "notice": "Returns the full semver contract version."
      }
    },
    "notice": "Hold the deployment bytecode         Separate from build contract to avoid bytecode size limitations",
    "version": 1
  },
  "storageLayout": {
    "storage": [],
    "types": null
  }
}