{
  "address": "0xa513E6E4b8f2a923D98304ec87F64353C4D5C853",
  "abi": [
    {
      "inputs": [],
      "stateMutability": "nonpayable",
      "type": "constructor"
    },
    {
      "inputs": [
        {
          "internalType": "uint256",
          "name": "l2OutputOracleSubmissionInterval",
          "type": "uint256"
        },
        {
          "internalType": "uint256",
          "name": "l2BlockTime",
          "type": "uint256"
        },
        {
          "internalType": "uint256",
          "name": "finalizationPeriodSeconds",
          "type": "uint256"
        }
      ],
      "name": "deployBytecode",
      "outputs": [
        {
          "internalType": "bytes",
          "name": "",
          "type": "bytes"
        }
      ],
      "stateMutability": "pure",
      "type": "function"
    },
    {
      "inputs": [],
      "name": "version",
      "outputs": [
        {
          "internalType": "string",
          "name": "",
          "type": "string"
        }
      ],
      "stateMutability": "view",
      "type": "function"
    }
  ],
  "transactionHash": "0x2825d16f2818506b83e8257d3ab072bf200c22e497dc8a9a0235c6153d0d9e94",
  "args": [],
  "numDeployments": 1,
  "solcInputHash": "a59b28bf75faade9a91b10b17d788d3d",
  "bytecode": "0x60e060405234801561001057600080fd5b5060016080819052600060a081905260c081905280611bd76100478239600060d60152600060ab0152600060800152611bd76000f3fe60806040523480156200001157600080fd5b50600436106200003a5760003560e01c806354fd4d50146200003f578063c6052ed91462000061575b600080fd5b6200004962000078565b6040516200005891906200037f565b60405180910390f35b62000049620000723660046200039b565b62000123565b6060620000a57f0000000000000000000000000000000000000000000000000000000000000000620001bb565b620000d07f0000000000000000000000000000000000000000000000000000000000000000620001bb565b620000fb7f0000000000000000000000000000000000000000000000000000000000000000620001bb565b6040516020016200010f93929190620003c8565b604051602081830303815290604052905090565b606060405180602001620001379062000310565b601f1982820381018352601f9091011660408190526200015b919060200162000444565b60408051601f1981840301815282825260208301879052908201859052606082018490529060800160408051601f1981840301815290829052620001a3929160200162000462565b60405160208183030381529060405290509392505050565b606081600003620001ff57505060408051808201909152600181527f3000000000000000000000000000000000000000000000000000000000000000602082015290565b8160005b81156200022f57806200021681620004ab565b9150620002279050600a83620004dd565b915062000203565b60008167ffffffffffffffff8111156200024d576200024d620004f4565b6040519080825280601f01601f19166020018201604052801562000278576020820181803683370190505b5090505b84156200030857620002906001836200050a565b91506200029f600a8662000524565b620002ac9060306200053b565b60f81b818381518110620002c457620002c462000556565b60200101907effffffffffffffffffffffffffffffffffffffffffffffffffffffffffffff1916908160001a90535062000300600a86620004dd565b94506200027c565b949350505050565b611635806200056d83390190565b60005b838110156200033b57818101518382015260200162000321565b838111156200034b576000848401525b50505050565b600081518084526200036b8160208601602086016200031e565b601f01601f19169290920160200192915050565b60208152600062000394602083018462000351565b9392505050565b600080600060608486031215620003b157600080fd5b505081359360208301359350604090920135919050565b60008451620003dc8184602089016200031e565b80830190507f2e0000000000000000000000000000000000000000000000000000000000000080825285516200041a816001850160208a016200031e565b60019201918201528351620004378160028401602088016200031e565b0160020195945050505050565b60008251620004588184602087016200031e565b9190910192915050565b60008351620004768184602088016200031e565b8351908301906200048c8183602088016200031e565b01949350505050565b634e487b7160e01b600052601160045260246000fd5b600060018201620004c057620004c062000495565b5060010190565b634e487b7160e01b600052601260045260246000fd5b600082620004ef57620004ef620004c7565b500490565b634e487b7160e01b600052604160045260246000fd5b6000828210156200051f576200051f62000495565b500390565b600082620005365762000536620004c7565b500690565b6000821982111562000551576200055162000495565b500190565b634e487b7160e01b600052603260045260246000fdfe60e06040523480156200001157600080fd5b5060405162001635380380620016358339810160408190526200003491620002f3565b60008211620000b05760405162461bcd60e51b815260206004820152603460248201527f4c324f75747075744f7261636c653a204c3220626c6f636b2074696d65206d7560448201527f73742062652067726561746572207468616e203000000000000000000000000060648201526084015b60405180910390fd5b60008311620001285760405162461bcd60e51b815260206004820152603a60248201527f4c324f75747075744f7261636c653a207375626d697373696f6e20696e74657260448201527f76616c206d7573742062652067726561746572207468616e20300000000000006064820152608401620000a7565b608083905260a082905260c08190526200014660008080806200014f565b50505062000322565b600054600290610100900460ff1615801562000172575060005460ff8083169116105b620001d75760405162461bcd60e51b815260206004820152602e60248201527f496e697469616c697a61626c653a20636f6e747261637420697320616c72656160448201526d191e481a5b9a5d1a585b1a5e995960921b6064820152608401620000a7565b6000805461ffff191660ff83161761010017905542841115620002715760405162461bcd60e51b8152602060048201526044602482018190527f4c324f75747075744f7261636c653a207374617274696e67204c322074696d65908201527f7374616d70206d757374206265206c657373207468616e2063757272656e742060648201526374696d6560e01b608482015260a401620000a7565b60028490556001859055600580546001600160a01b038581166001600160a01b03199283161790925560048054928516929091169190911790556000805461ff001916905560405160ff821681527f7f26b83ff96e1f2b6a682f133852f6798a09c465da95921460cefb38474024989060200160405180910390a15050505050565b6000806000606084860312156200030957600080fd5b8351925060208401519150604084015190509250925092565b60805160a05160c0516112b96200037c60003960008181610472015281816105300152610aa00152600081816101a101528181610392015261106601526000818161021f015281816104fa01526110b401526112b96000f3fe60806040526004361061018a5760003560e01c806389c44cbb116100d6578063ce5db8d61161007f578063dcec334811610059578063dcec3348146104d6578063e1a41bcf146104eb578063f4daa2911461051e57600080fd5b8063ce5db8d614610463578063cf8e5cf014610496578063d1de856c146104b657600080fd5b8063a25ae557116100b0578063a25ae557146103c9578063a8e4fb9014610425578063bffa7f0f1461044557600080fd5b806389c44cbb1461036357806393991af3146103835780639aaab648146103b657600080fd5b806369f16eec1161013857806370872aa51161011257806370872aa5146103175780637f0064201461032d578063887862721461034d57600080fd5b806369f16eec146102cf5780636abcf563146102e45780636b4d98dd146102f957600080fd5b8063529933df11610169578063529933df1461020d578063534db0e21461024157806354fd4d501461027957600080fd5b80622134cc1461018f578063019e2729146101d65780634599c788146101f8575b600080fd5b34801561019b57600080fd5b506101c37f000000000000000000000000000000000000000000000000000000000000000081565b6040519081526020015b60405180910390f35b3480156101e257600080fd5b506101f66101f1366004611101565b610552565b005b34801561020457600080fd5b506101c3610736565b34801561021957600080fd5b506101c37f000000000000000000000000000000000000000000000000000000000000000081565b34801561024d57600080fd5b50600454610261906001600160a01b031681565b6040516001600160a01b0390911681526020016101cd565b34801561028557600080fd5b506102c26040518060400160405280600581526020017f312e352e3000000000000000000000000000000000000000000000000000000081525081565b6040516101cd9190611147565b3480156102db57600080fd5b506101c361079c565b3480156102f057600080fd5b506003546101c3565b34801561030557600080fd5b506004546001600160a01b0316610261565b34801561032357600080fd5b506101c360015481565b34801561033957600080fd5b506101c361034836600461119c565b6107ae565b34801561035957600080fd5b506101c360025481565b34801561036f57600080fd5b506101f661037e36600461119c565b610981565b34801561038f57600080fd5b507f00000000000000000000000000000000000000000000000000000000000000006101c3565b6101f66103c43660046111b5565b610bde565b3480156103d557600080fd5b506103e96103e436600461119c565b610fa3565b60408051825181526020808401516fffffffffffffffffffffffffffffffff9081169183019190915292820151909216908201526060016101cd565b34801561043157600080fd5b50600554610261906001600160a01b031681565b34801561045157600080fd5b506005546001600160a01b0316610261565b34801561046f57600080fd5b507f00000000000000000000000000000000000000000000000000000000000000006101c3565b3480156104a257600080fd5b506103e96104b136600461119c565b61102a565b3480156104c257600080fd5b506101c36104d136600461119c565b611062565b3480156104e257600080fd5b506101c36110b0565b3480156104f757600080fd5b507f00000000000000000000000000000000000000000000000000000000000000006101c3565b34801561052a57600080fd5b506101c37f000000000000000000000000000000000000000000000000000000000000000081565b600054600290610100900460ff16158015610574575060005460ff8083169116105b6105eb5760405162461bcd60e51b815260206004820152602e60248201527f496e697469616c697a61626c653a20636f6e747261637420697320616c72656160448201527f647920696e697469616c697a656400000000000000000000000000000000000060648201526084015b60405180910390fd5b6000805461ffff191660ff8316176101001790554284111561069c5760405162461bcd60e51b8152602060048201526044602482018190527f4c324f75747075744f7261636c653a207374617274696e67204c322074696d65908201527f7374616d70206d757374206265206c657373207468616e2063757272656e742060648201527f74696d6500000000000000000000000000000000000000000000000000000000608482015260a4016105e2565b60028490556001859055600580546001600160a01b038581167fffffffffffffffffffffffff00000000000000000000000000000000000000009283161790925560048054928516929091169190911790556000805461ff001916905560405160ff821681527f7f26b83ff96e1f2b6a682f133852f6798a09c465da95921460cefb38474024989060200160405180910390a15050505050565b600354600090156107935760038054610751906001906111fd565b8154811061076157610761611214565b6000918252602090912060029091020160010154600160801b90046fffffffffffffffffffffffffffffffff16919050565b6001545b905090565b600354600090610797906001906111fd565b60006107b8610736565b8211156108535760405162461bcd60e51b815260206004820152604860248201527f4c324f75747075744f7261636c653a2063616e6e6f7420676574206f7574707560448201527f7420666f72206120626c6f636b207468617420686173206e6f74206265656e2060648201527f70726f706f736564000000000000000000000000000000000000000000000000608482015260a4016105e2565b6003546108ee5760405162461bcd60e51b815260206004820152604660248201527f4c324f75747075744f7261636c653a2063616e6e6f7420676574206f7574707560448201527f74206173206e6f206f7574707574732068617665206265656e2070726f706f7360648201527f6564207965740000000000000000000000000000000000000000000000000000608482015260a4016105e2565b6003546000905b8082101561097a576000600261090b838561122a565b6109159190611242565b9050846003828154811061092b5761092b611214565b6000918252602090912060029091020160010154600160801b90046fffffffffffffffffffffffffffffffff1610156109705761096981600161122a565b9250610974565b8091505b506108f5565b5092915050565b6004546001600160a01b03163314610a015760405162461bcd60e51b815260206004820152603e60248201527f4c324f75747075744f7261636c653a206f6e6c7920746865206368616c6c656e60448201527f67657220616464726573732063616e2064656c657465206f757470757473000060648201526084016105e2565b6003548110610a9e5760405162461bcd60e51b815260206004820152604360248201527f4c324f75747075744f7261636c653a2063616e6e6f742064656c657465206f7560448201527f747075747320616674657220746865206c6174657374206f757470757420696e60648201527f6465780000000000000000000000000000000000000000000000000000000000608482015260a4016105e2565b7f000000000000000000000000000000000000000000000000000000000000000060038281548110610ad257610ad2611214565b6000918252602090912060016002909202010154610b02906fffffffffffffffffffffffffffffffff16426111fd565b10610b9b5760405162461bcd60e51b815260206004820152604660248201527f4c324f75747075744f7261636c653a2063616e6e6f742064656c657465206f7560448201527f74707574732074686174206861766520616c7265616479206265656e2066696e60648201527f616c697a65640000000000000000000000000000000000000000000000000000608482015260a4016105e2565b6000610ba660035490565b90508160035581817f4ee37ac2c786ec85e87592d3c5c8a1dd66f8496dda3f125d9ea8ca5f657629b660405160405180910390a35050565b6005546001600160a01b03163314610c845760405162461bcd60e51b815260206004820152604160248201527f4c324f75747075744f7261636c653a206f6e6c79207468652070726f706f736560448201527f7220616464726573732063616e2070726f706f7365206e6577206f757470757460648201527f7300000000000000000000000000000000000000000000000000000000000000608482015260a4016105e2565b610c8c6110b0565b8314610d265760405162461bcd60e51b815260206004820152604860248201527f4c324f75747075744f7261636c653a20626c6f636b206e756d626572206d757360448201527f7420626520657175616c20746f206e65787420657870656374656420626c6f6360648201527f6b206e756d626572000000000000000000000000000000000000000000000000608482015260a4016105e2565b42610d3084611062565b10610da35760405162461bcd60e51b815260206004820152603660248201527f4c324f75747075744f7261636c653a2063616e6e6f742070726f706f7365204c60448201527f32206f757470757420696e20746865206675747572650000000000000000000060648201526084016105e2565b83610e165760405162461bcd60e51b815260206004820152603a60248201527f4c324f75747075744f7261636c653a204c32206f75747075742070726f706f7360448201527f616c2063616e6e6f7420626520746865207a65726f206861736800000000000060648201526084016105e2565b8115610eb85781814014610eb85760405162461bcd60e51b815260206004820152604960248201527f4c324f75747075744f7261636c653a20626c6f636b206861736820646f65732060448201527f6e6f74206d61746368207468652068617368206174207468652065787065637460648201527f6564206865696768740000000000000000000000000000000000000000000000608482015260a4016105e2565b82610ec260035490565b857fa7aaf2512769da4e444e3de247be2564225c2e7a8f74cfe528e46e17d24868e242604051610ef491815260200190565b60405180910390a45050604080516060810182529283526fffffffffffffffffffffffffffffffff4281166020850190815292811691840191825260038054600181018255600091909152935160029094027fc2575a0e9e593c00f959f8c92f12db2869c3395a3b0502d05e2516446f71f85b810194909455915190518216600160801b029116177fc2575a0e9e593c00f959f8c92f12db2869c3395a3b0502d05e2516446f71f85c90910155565b604080516060810182526000808252602082018190529181019190915260038281548110610fd357610fd3611214565b600091825260209182902060408051606081018252600290930290910180548352600101546fffffffffffffffffffffffffffffffff80821694840194909452600160801b90049092169181019190915292915050565b60408051606081018252600080825260208201819052918101919091526003611052836107ae565b81548110610fd357610fd3611214565b60007f00000000000000000000000000000000000000000000000000000000000000006001548361109391906111fd565b61109d9190611264565b6002546110aa919061122a565b92915050565b60007f00000000000000000000000000000000000000000000000000000000000000006110db610736565b610797919061122a565b80356001600160a01b03811681146110fc57600080fd5b919050565b6000806000806080858703121561111757600080fd5b843593506020850135925061112e604086016110e5565b915061113c606086016110e5565b905092959194509250565b600060208083528351808285015260005b8181101561117457858101830151858201604001528201611158565b81811115611186576000604083870101525b50601f01601f1916929092016040019392505050565b6000602082840312156111ae57600080fd5b5035919050565b600080600080608085870312156111cb57600080fd5b5050823594602084013594506040840135936060013592509050565b634e487b7160e01b600052601160045260246000fd5b60008282101561120f5761120f6111e7565b500390565b634e487b7160e01b600052603260045260246000fd5b6000821982111561123d5761123d6111e7565b500190565b60008261125f57634e487b7160e01b600052601260045260246000fd5b500490565b600081600019048311821515161561127e5761127e6111e7565b50029056fea2646970667358221220e988397a156a503f54f31141baf470b00800b7701c926a8b7269e66ba6ab5a9664736f6c634300080f0033a2646970667358221220ffe59578dac93850f89d8d3ab9c1d3042b06972eb1f12d7b23cf91a77c68531c64736f6c634300080f0033",
  "devdoc": {
    "kind": "dev",
    "methods": {
      "version()": {
        "returns": {
          "_0": "Semver contract version as a string."
        }
      }
    },
    "version": 1
  },
  "userdoc": {
    "kind": "user",
    "methods": {
      "deployBytecode(uint256,uint256,uint256)": {
        "notice": "The create2 salt used for deployment of the contract implementations."
      },
      "version()": {
        "notice": "Returns the full semver contract version."
      }
    },
    "notice": "Hold the deployment bytecode         Separate from build contract to avoid bytecode size limitations",
    "version": 1
  },
  "storageLayout": {
    "storage": [],
    "types": null
  }
}